{
  "contractName": "LongLivedPaymentChannel",
  "abi": [
    {
      "inputs": [
        {
          "internalType": "address",
          "name": "_recipient",
          "type": "address"
        },
        {
          "internalType": "uint256",
          "name": "_closeDuration",
          "type": "uint256"
        }
      ],
      "stateMutability": "payable",
      "type": "constructor",
      "payable": true
    },
    {
      "anonymous": false,
      "inputs": [],
      "name": "StartSenderClose",
      "type": "event"
    },
    {
      "inputs": [],
      "name": "closeDuration",
      "outputs": [
        {
          "internalType": "uint256",
          "name": "",
          "type": "uint256"
        }
      ],
      "stateMutability": "view",
      "type": "function",
      "constant": true
    },
    {
      "inputs": [],
      "name": "expiration",
      "outputs": [
        {
          "internalType": "uint256",
          "name": "",
          "type": "uint256"
        }
      ],
      "stateMutability": "view",
      "type": "function",
      "constant": true
    },
    {
      "inputs": [],
      "name": "recipient",
      "outputs": [
        {
          "internalType": "address",
          "name": "",
          "type": "address"
        }
      ],
      "stateMutability": "view",
      "type": "function",
      "constant": true
    },
    {
      "inputs": [],
      "name": "sender",
      "outputs": [
        {
          "internalType": "address",
          "name": "",
          "type": "address"
        }
      ],
      "stateMutability": "view",
      "type": "function",
      "constant": true
    },
    {
      "inputs": [],
      "name": "withdrawn",
      "outputs": [
        {
          "internalType": "uint256",
          "name": "",
          "type": "uint256"
        }
      ],
      "stateMutability": "view",
      "type": "function",
      "constant": true
    },
    {
      "inputs": [
        {
          "internalType": "uint256",
          "name": "amount",
          "type": "uint256"
        },
        {
          "internalType": "bytes",
          "name": "signature",
          "type": "bytes"
        }
      ],
      "name": "close",
      "outputs": [],
      "stateMutability": "nonpayable",
      "type": "function"
    },
    {
      "inputs": [],
      "name": "startSenderClose",
      "outputs": [],
      "stateMutability": "nonpayable",
      "type": "function"
    },
    {
      "inputs": [],
      "name": "claimTimeout",
      "outputs": [],
      "stateMutability": "nonpayable",
      "type": "function"
    },
    {
      "inputs": [],
      "name": "deposit",
      "outputs": [],
      "stateMutability": "payable",
      "type": "function",
      "payable": true
    },
    {
      "inputs": [
        {
          "internalType": "uint256",
          "name": "amountAuthorized",
          "type": "uint256"
        },
        {
          "internalType": "bytes",
          "name": "signature",
          "type": "bytes"
        }
      ],
      "name": "withdraw",
      "outputs": [],
      "stateMutability": "nonpayable",
      "type": "function"
    }
  ],
  "bytecode": "0x60806040527fffffffffffffffffffffffffffffffffffffffffffffffffffffffffffffffff600455604051610f52380380610f528339818101604052604081101561004a57600080fd5b810190808051906020019092919080519060200190929190505050336000806101000a81548173ffffffffffffffffffffffffffffffffffffffff021916908373ffffffffffffffffffffffffffffffffffffffff16021790555081600160006101000a81548173ffffffffffffffffffffffffffffffffffffffff021916908373ffffffffffffffffffffffffffffffffffffffff160217905550806003819055505050610e54806100fe6000396000f3fe6080604052600436106100915760003560e01c806366d003ac1161005957806366d003ac1461029357806367e404ce146102ea578063ac89463314610341578063c80ec5221461036c578063d0e30db01461039757610091565b8063030ba25d146100965780630e1da6c3146101685780633646362d1461017f578063415ffba7146101965780634665096d14610268575b600080fd5b3480156100a257600080fd5b50610166600480360360408110156100b957600080fd5b8101908080359060200190929190803590602001906401000000008111156100e057600080fd5b8201836020820111156100f257600080fd5b8035906020019184600183028401116401000000008311171561011457600080fd5b91908080601f016020809104026020016040519081016040528093929190818152602001838380828437600081840152601f19601f8201169050808301925050505050505091929192905050506103a1565b005b34801561017457600080fd5b5061017d610565565b005b34801561018b57600080fd5b506101946105ff565b005b3480156101a257600080fd5b50610266600480360360408110156101b957600080fd5b8101908080359060200190929190803590602001906401000000008111156101e057600080fd5b8201836020820111156101f257600080fd5b8035906020019184600183028401116401000000008311171561021457600080fd5b91908080601f016020809104026020016040519081016040528093929190818152602001838380828437600081840152601f19601f8201169050808301925050505050505091929192905050506106dd565b005b34801561027457600080fd5b5061027d6108c2565b6040518082815260200191505060405180910390f35b34801561029f57600080fd5b506102a86108c8565b604051808273ffffffffffffffffffffffffffffffffffffffff1673ffffffffffffffffffffffffffffffffffffffff16815260200191505060405180910390f35b3480156102f657600080fd5b506102ff6108ee565b604051808273ffffffffffffffffffffffffffffffffffffffff1673ffffffffffffffffffffffffffffffffffffffff16815260200191505060405180910390f35b34801561034d57600080fd5b50610356610913565b6040518082815260200191505060405180910390f35b34801561037857600080fd5b50610381610919565b6040518082815260200191505060405180910390f35b61039f61091f565b005b600160009054906101000a900473ffffffffffffffffffffffffffffffffffffffff1673ffffffffffffffffffffffffffffffffffffffff163373ffffffffffffffffffffffffffffffffffffffff1614610447576040517f08c379a0000000000000000000000000000000000000000000000000000000008152600401808060200182810382526034815260200180610d7b6034913960400191505060405180910390fd5b61045182826109c6565b6104a6576040517f08c379a000000000000000000000000000000000000000000000000000000000815260040180806020018281038252602f815260200180610d4c602f913960400191505060405180910390fd5b6002548211610500576040517f08c379a000000000000000000000000000000000000000000000000000000000815260040180806020018281038252603f815260200180610c7b603f913960400191505060405180910390fd5b600060025483039050806002600082825401925050819055503373ffffffffffffffffffffffffffffffffffffffff166108fc829081150290604051600060405180830381858888f1935050505015801561055f573d6000803e3d6000fd5b50505050565b6004544210156105c0576040517f08c379a0000000000000000000000000000000000000000000000000000000008152600401808060200182810382526030815260200180610cf46030913960400191505060405180910390fd5b60008060009054906101000a900473ffffffffffffffffffffffffffffffffffffffff1690508073ffffffffffffffffffffffffffffffffffffffff16ff5b6000809054906101000a900473ffffffffffffffffffffffffffffffffffffffff1673ffffffffffffffffffffffffffffffffffffffff163373ffffffffffffffffffffffffffffffffffffffff16146106a4576040517f08c379a000000000000000000000000000000000000000000000000000000000815260040180806020018281038252603a815260200180610cba603a913960400191505060405180910390fd5b7f2d8a27449487293626b9d3ab009ad632728ba7f09b962be5ab13c66157598d8860405160405180910390a16003544201600481905550565b600160009054906101000a900473ffffffffffffffffffffffffffffffffffffffff1673ffffffffffffffffffffffffffffffffffffffff163373ffffffffffffffffffffffffffffffffffffffff1614610783576040517f08c379a0000000000000000000000000000000000000000000000000000000008152600401808060200182810382526040815260200180610daf6040913960400191505060405180910390fd5b61078d82826109c6565b6107e2576040517f08c379a000000000000000000000000000000000000000000000000000000000815260040180806020018281038252602a815260200180610c51602a913960400191505060405180910390fd5b60025482101561083d576040517f08c379a0000000000000000000000000000000000000000000000000000000008152600401808060200182810382526049815260200180610c086049913960600191505060405180910390fd5b3373ffffffffffffffffffffffffffffffffffffffff166108fc60025484039081150290604051600060405180830381858888f19350505050158015610887573d6000803e3d6000fd5b506000809054906101000a900473ffffffffffffffffffffffffffffffffffffffff1673ffffffffffffffffffffffffffffffffffffffff16ff5b60045481565b600160009054906101000a900473ffffffffffffffffffffffffffffffffffffffff1681565b6000809054906101000a900473ffffffffffffffffffffffffffffffffffffffff1681565b60035481565b60025481565b6000809054906101000a900473ffffffffffffffffffffffffffffffffffffffff1673ffffffffffffffffffffffffffffffffffffffff163373ffffffffffffffffffffffffffffffffffffffff16146109c4576040517f08c379a0000000000000000000000000000000000000000000000000000000008152600401808060200182810382526030815260200180610def6030913960400191505060405180910390fd5b565b600080610a2f3085604051602001808373ffffffffffffffffffffffffffffffffffffffff1673ffffffffffffffffffffffffffffffffffffffff1660601b81526014018281526020019250505060405160208183030381529060405280519060200120610a93565b90506000809054906101000a900473ffffffffffffffffffffffffffffffffffffffff1673ffffffffffffffffffffffffffffffffffffffff16610a738285610aeb565b73ffffffffffffffffffffffffffffffffffffffff161491505092915050565b60008160405160200180807f19457468657265756d205369676e6564204d6573736167653a0a333200000000815250601c01828152602001915050604051602081830303815290604052805190602001209050919050565b600080600080610afa85610b78565b80935081945082955050505060018684848460405160008152602001604052604051808581526020018460ff1660ff1681526020018381526020018281526020019450505050506020604051602081039080840390855afa158015610b63573d6000803e3d6000fd5b50505060206040510351935050505092915050565b60008060006041845114610bd7576040517f08c379a0000000000000000000000000000000000000000000000000000000008152600401808060200182810382526028815260200180610d246028913960400191505060405180910390fd5b60008060006020870151925060408701519150606087015160001a9050808383955095509550505050919390925056fe4c6f6e674c697665645061796d656e744368616e6e656c3a20616d6f756e742073686f756c642062652067726561746572207468616e20657175616c20746f2077697468647261776e4c6f6e674c697665645061796d656e744368616e6e656c3a207369676e617475726520696e76616c69644c6f6e674c697665645061796d656e744368616e6e656c3a206e6f7420617574686f72697a656420746f207769746864726177207468697320616d6f756e744c6f6e674c697665645061796d656e744368616e6e656c3a206f6e6c792073656e6465722063616e20636c6f736520746865206368616e6e656c4c6f6e674c697665645061796d656e744368616e6e656c3a2074696d65206973206e6f742079657420657870697265644c6f6e674c697665645061796d656e744368616e6e656c3a2077726f6e67207369676e61747572654c6f6e674c697665645061796d656e744368616e6e656c3a207369676e6174757265206973206e6f742076616c69644c6f6e674c697665645061796d656e744368616e6e656c3a206f6e6c7920726563697069656e742063616e2077697468647261774c6f6e674c697665645061796d656e744368616e6e656c3a206f6e6c7920726563697069656e7420616c6c6f77656420746f20636c6f7365206368616e6e656c4c6f6e674c697665645061796d656e744368616e6e656c3a206f6e6c792073656e6465722063616e206465706f736974a2646970667358221220501c8ef9cf946afb65425d8063da7a80c79c4ec9635c000f4b86ec250220ec6a64736f6c634300060b0033",
  "immutableReferences": {},
  "source": "// SPDX-License-Identifier: MIT\n\npragma solidity ^0.6.9;\n\ncontract LongLivedPaymentChannel {\n    address public sender;      // The account sending payments.\n    address public recipient;   // The account receiving the payments.\n    uint256 public withdrawn;   // How much the recipient has already withdrawn.\n\n    // How much time the recipient has to respond when the sender initiates\n    // channel closure.\n    uint256 public closeDuration;\n    // When the payment channel closes. Initially effectively infinite.\n    uint256 public expiration = 2**256-1;\n\n    constructor (address _recipient, uint256 _closeDuration)\n        public\n        payable\n    {\n        sender = msg.sender;\n        recipient = _recipient;\n        closeDuration = _closeDuration;\n    }\n\n    function isValidSignature(uint256 amount, bytes memory signature)\n        internal\n        view\n        returns (bool)\n    {\n        bytes32 message = prefixed(keccak256(abi.encodePacked(this, amount)));\n\n\n        // Check that the signature is from the payment sender.\n        return recoverSigner(message, signature) == sender;\n    }\n\n    // The recipient can close the channel at any time by presenting a signed\n    // amount from the sender. The recipient will be sent that amount, and the\n    // remainder will go back to the sender.\n    function close(uint256 amount, bytes memory signature) public {\n        require(msg.sender == recipient, \"LongLivedPaymentChannel: only recipient allowed to close channel\");\n        require(isValidSignature(amount, signature),\"LongLivedPaymentChannel: signature invalid\");\n\n        require(amount >= withdrawn, \"LongLivedPaymentChannel: amount should be greater than equal to withdrawn\");\n        msg.sender.transfer(amount - withdrawn);\n\n        selfdestruct(payable(sender));\n    }\n\n    event StartSenderClose();\n\n    function startSenderClose() public {\n        require(msg.sender == sender,\"LongLivedPaymentChannel: only sender can close the channel\");\n        emit StartSenderClose();\n        // solium-disable-next-line security/no-block-members\n        expiration = now + closeDuration;\n    }\n\n    // If the timeout is reached without the recipient closing the channel, then\n    // the ether is released back to the sender.\n    function claimTimeout() public {\n        // solium-disable-next-line security/no-block-members\n        require(now >= expiration, \"LongLivedPaymentChannel: time is not yet expired\");\n        address payable pSender = payable(sender);\n        selfdestruct(pSender);\n    }\n\n    function deposit() public payable {\n        require(msg.sender == sender,\"LongLivedPaymentChannel: only sender can deposit\");\n    }\n\n    function withdraw(uint256 amountAuthorized, bytes memory signature) public {\n        require(msg.sender == recipient, \"LongLivedPaymentChannel: only recipient can withdraw\");\n\n        require(isValidSignature(amountAuthorized, signature),\"LongLivedPaymentChannel: signature is not valid\");\n\n        // Make sure there's something to withdraw (guards against underflow)\n        require(amountAuthorized > withdrawn,\"LongLivedPaymentChannel: not authorized to withdraw this amount\");\n        uint256 amountToWithdraw = amountAuthorized - withdrawn;\n\n        withdrawn += amountToWithdraw;\n        msg.sender.transfer(amountToWithdraw);\n    }\n\n    function splitSignature(bytes memory sig)\n        internal\n        pure\n        returns (uint8, bytes32, bytes32)\n    {\n        require(sig.length == 65,\"LongLivedPaymentChannel: wrong signature\");\n\n        bytes32 r;\n        bytes32 s;\n        uint8 v;\n\n        // solium-disable-next-line security/no-inline-assembly\n        assembly {\n            // first 32 bytes, after the length prefix\n            r := mload(add(sig, 32))\n            // second 32 bytes\n            s := mload(add(sig, 64))\n            // final byte (first byte of the next 32 bytes)\n            v := byte(0, mload(add(sig, 96)))\n        }\n\n        return (v, r, s);\n    }\n\n    function recoverSigner(bytes32 message, bytes memory sig)\n        internal\n        pure\n        returns (address)\n    {\n        uint8 v;\n        bytes32 r;\n        bytes32 s;\n\n        (v, r, s) = splitSignature(sig);\n\n        return ecrecover(message, v, r, s);\n    }\n\n    // Builds a prefixed hash to mimic the behavior of eth_sign.\n    function prefixed(bytes32 hash) internal pure returns (bytes32) {\n        return keccak256(abi.encodePacked(\"\\x19Ethereum Signed Message:\\n32\", hash));\n    }\n}",
  "sourcePath": "/home/wanja/advanced-smart-contracts/long-lived-payment-channel/contracts/longLivedPaymentChannel.sol",
  "compiler": {
    "name": "solc",
    "version": "0.6.11+commit.5ef660b1.Emscripten.clang"
  },
  "schemaVersion": "3.2.0",
  "updatedAt": "2020-07-21T16:05:55.979Z",
  "networkType": "ethereum",
  "devdoc": {
    "kind": "dev",
    "methods": {},
    "version": 1
  },
  "userdoc": {
    "kind": "user",
    "methods": {},
    "version": 1
  }
}